:100000000C9462000C948A000C948A000C948A0070
:100010000C948A000C948A000C948A000C948A0038
:100020000C948A000C948A000C948A000C948A0028
:100030000C948A000C948A000C948A000C948A0018
:100040000C94E3050C948A000C9453060C942D0632
:100050000C948A000C948A000C948A000C948A00F8
:100060000C9485060C948A000000000024002700F0
:100070002A0000000000250028002B0000000000DE
:1000800023002600290004040404040404040202DA
:100090000202020203030303030301020408102007
:1000A0004080010204081020010204081020000012
:1000B0000008000201000003040700000000000027
:1000C0000000A40711241FBECFEFD8E0DEBFCDBFD4
:1000D00011E0A0E0B1E0E4EEFAE102C005900D927B
:1000E000A636B107D9F723E0A6E6B1E001C01D921C
:1000F000A430B207E1F710E0C2E6D0E004C02197D7
:10010000FE010E946A0DC136D107C9F70E94EC07B3
:100110000C94700D0C940000833081F028F4813031
:1001200099F08230A9F008958730A9F08830C9F09D
:100130008430B1F4809180008F7D03C08091800075
:100140008F7780938000089584B58F7784BD08955C
:1001500084B58F7DFBCF8091B0008F778093B00006
:1001600008958091B0008F7DF9CFCF93DF93282F32
:1001700030E0F901E255FF4F8491F901E656FF4F57
:10018000D491F901EA57FF4FC491CC23A1F081111A
:100190000E948C00EC2FF0E0EE0FFF1FE458FF4FA1
:1001A000A591B491EC91ED2381E090E009F480E019
:1001B000DF91CF91089580E090E0FACF1F93CF9325
:1001C000DF93282F30E0F901E255FF4F8491F901C8
:1001D000E656FF4FD491F901EA57FF4FC491CC2363
:1001E000A9F0162F81110E948C00EC2FF0E0EE0F89
:1001F000FF1FEE58FF4FA591B4918FB7F894EC9183
:10020000111108C0D095DE23DC938FBFDF91CF9111
:100210001F910895DE2BF8CFCF93DF9390E0FC0180
:10022000E656FF4F24918A579F4FFC018491882303
:10023000D1F090E0880F991FFC01E859FF4FA5917C
:10024000B491FC01EE58FF4FC591D491623071F426
:100250009FB7F8943C91822F809583238C93E881FB
:100260002E2B28839FBFDF91CF9108958FB7F894ED
:10027000EC912E2B2C938FBFF6CF3FB7F894809143
:100280004B0290914C02A0914D02B0914E0226B5C6
:10029000A89B05C02F3F19F00196A11DB11D3FBFBE
:1002A000BA2FA92F982F8827BC01CD01620F711D8D
:1002B000811D911D42E0660F771F881F991F4A9587
:1002C000D1F708958F929F92AF92BF92CF92DF9213
:1002D000EF92FF924B015C010E943D016B017C019A
:1002E0000E943D016C197D098E099F09683E73408B
:1002F00081059105A8F321E0821A9108A108B108AF
:1003000088EEC80E83E0D81EE11CF11C8114910414
:10031000A104B10429F7FF90EF90DF90CF90BF9038
:10032000AF909F908F90089508950895AF92BF92D7
:10033000CF92DF92EF92FF920F931F93CF93DF93B1
:100340006C017B018B01040F151FEB015E01AE18E0
:10035000BF08C017D10759F06991D601ED91FC9102
:100360000190F081E02DC6010995892B79F7C5012F
:10037000DF91CF911F910F91FF90EF90DF90CF9081
:10038000BF90AF900895FC01538D448D252F30E030
:10039000842F90E0821B930B541710F0CF96089592
:1003A00001970895FC01918D828D981761F0A28DBF
:1003B000AE0FBF2FB11D5D968C91928D9F5F9F7385
:1003C000928F90E008958FEF9FEF0895FC01918D3B
:1003D000828D981731F0828DE80FF11D858D90E0A8
:1003E00008958FEF9FEF0895FC01918D228D892F45
:1003F00090E0805C9F4F821B91098F73992708952D
:100400008FE492E00E94F40121E0892B09F420E0BE
:10041000822F089580E090E0892B29F00E9400024D
:1004200081110C9400000895FC01A48DA80FB92F30
:10043000B11DA35ABF4F2C91848D90E001968F730C
:100440009927848FA689B7892C93A089B1898C912B
:10045000837080648C93938D848D981306C002887A
:10046000F389E02D80818F7D80830895EF92FF9244
:100470000F931F93CF93DF93EC0181E0888F9B8DC7
:100480008C8D98131AC0E889F989808185FF15C081
:100490009FB7F894EE89FF896083E889F9898081A4
:1004A0008370806480839FBF81E090E0DF91CF9173
:1004B0001F910F91FF90EF900895F62E0B8D10E095
:1004C0000F5F1F4F0F731127E02E8C8D8E110CC004
:1004D0000FB607FCFACFE889F989808185FFF5CF4F
:1004E000CE010E941402F1CFEB8DEC0FFD2FF11D18
:1004F000E35AFF4FF0829FB7F8940B8FEA89FB898C
:1005000080818062CFCFCF93DF93EC01888D8823E9
:10051000B9F0AA89BB89E889F9898C9185FD03C066
:10052000808186FD0DC00FB607FCF7CF8C9185FF4B
:10053000F2CF808185FFEDCFCE010E941402E9CF7A
:10054000DF91CF9108952091CE01260F3327331FDD
:1005500021323105ECF42091F201FC0190E080E0C1
:10056000243069F082E00895A091CE012191AC0180
:1005700042555E4FA40FB52FB11D2C9301968617DF
:1005800098F38091CE01680F6093CE0180E00895CA
:1005900081E008951092F20181E08093F4011092BD
:1005A000F30161E082E10E94DE0061E083E10E94EC
:1005B000DE00E9EBF0E080818E7F808380818D7F9B
:1005C000808388E48093B80085E48093BC0008951C
:1005D000CF93DF9391E09093AD018823B9F0C09160
:1005E000B800D091BA008091BC008A7B8093BC0097
:1005F00060E082E10E94DE0060E083E10E94DE00B4
:100600000E94CA02D093BA00C093B800DF91CF9184
:1006100008950895E0911F0280911E02E81730F4BA
:10062000F0E0E857FE4F808190E008958FEF9FEF54
:10063000089590911F0280911E022FEF3FEF9817AF
:1006400048F4E92FF0E0E857FE4F208130E09F5F4B
:1006500090931F02C901089580911E0290911F027C
:10066000891B990B0895CF92DF92EF92FF920F931F
:100670001F93CF93DF937C01CB018A0120918701E7
:10068000222389F0EB016B01C40ED51ECC15DD05CC
:1006900069F06991D701ED91FC910190F081E02D15
:1006A000C7010995F3CF642F0E94A302C801DF910F
:1006B000CF911F910F91FF90EF90DF90CF90089511
:1006C000CF93DF931F92CDB7DEB769832091870167
:1006D0002223F9F020911C02203258F021E030E072
:1006E000FC013383228390E080E00F90DF91CF9173
:1006F000089580911D02E82FF0E0E959FE4F99819D
:1007000090838F5F80931D0280931C0281E090E0B4
:10071000ECCF61E0CE0101960E94A302F7CFCF9209
:10072000DF92EF92FF920F931F93CF93DF93FC0121
:10073000C48121E020938701C093660110921D02BD
:1007400010921C028385682B8CEE92E00E9460035D
:10075000D0911C02D13208F092C00E943D016B0181
:100760007C018091F201811165C082E08093F201E9
:1007700081E08093F4018FEF8093F10110921602D3
:10078000D0931502A7E6B1E0E5EFF1E080E0D813E1
:1007900085C01092170280911702CC0FC82BC0930E
:1007A00017028091F301813009F07CC01092F301AF
:1007B0000E943D016B017C01809117028093BB0078
:1007C0008091A9019091AA01A091AB01B091AC01D7
:1007D000892B8A2B8B2B99F00E943D010091A90156
:1007E0001091AA012091AB013091AC016C197D09E7
:1007F0008E099F090617170728073907E0F180912E
:10080000BC0083FDD9CF85EC8093BC000E943D01E4
:100810006B017C018091F201823009F445C0809126
:10082000F1018F3F61F18091F101803241F18091BE
:10083000F10125C08091A9019091AA01A091AB017D
:10084000B091AC01892B8A2B8B2B09F48ACF0E94A3
:100850003D010091A9011091AA012091AB013091B5
:10086000AC016C197D098E099F0906171707280727
:10087000390708F076CF8091A8010E94E802109213
:100880001D0210921C0210928701DF91CF911F91DF
:100890000F91FF90EF90DF90CF9008959D919193ED
:1008A0008F5F75CF85EEB0CF8091A9019091AA019D
:1008B000A091AB01B091AC01892B8A2B8B2B09F451
:1008C000A9CF0E943D010091A9011091AA01209198
:1008D000AB013091AC016C197D098E099F09061797
:1008E00017072807390708F095CFC5CF089590E07E
:1008F00080E008950F931F93CF938C01C62F0E9421
:100900008F036C2F6460C8010E948F036C2F6B7F74
:10091000C8010E948F0383EC90E00197F1F7CF911B
:100920001F910F9108950F931F93CF93DF938C0125
:10093000D62FC42F607F642B0E947A0480E1D89F59
:10094000B00111246C2BC801DF91CF911F910F9141
:100950000C947A04CF93DF93CDB7DEB728970FB608
:10096000F894DEBF0FBECDBF98E0E0E0F1E0DE011D
:10097000119601900D929A95E1F7909100039617C8
:1009800008F46FEF262F30E0220F331F41E050E0D4
:100990004C0F5D1F240F351FF9016081680F6068DF
:1009A00040E088EF92E028960FB6F894DEBF0FBEC5
:1009B000CDBFDF91CF910C94930441E00E9493044A
:1009C00081E090E00895FB0101900020E9F7319764
:1009D000AF01461B570BDC01ED91FC910280F381C6
:1009E000E02D09944F925F926F927F92AF92BF92E7
:1009F000CF92DF92EF92FF920F931F93CF93DF93EB
:100A0000CDB7DEB7A1970FB6F894DEBF0FBECDBF4E
:100A10005C016A017B01F7FE47C0DC01ED91FC91AE
:100A20000190F081E02D6DE209958C01222733279A
:100A3000A9012C193D094E095F0919A2FE01B196C1
:100A40007F019AE0492E512C612C712CCA01B90109
:100A5000A30192010E94480D605DD7016E937D0154
:100A6000211531054105510589F790E080E0109787
:100A700021F0BD01C5010E94E304800F911FA196E2
:100A80000FB6F894DEBF0FBECDBFDF91CF911F919F
:100A90000F91FF90EF90DF90CF90BF90AF907F903D
:100AA0006F905F904F900895AB01960119A28E014F
:100AB0000F5D1F4F8AE0C82ED12CE12CF12CCA010A
:100AC000B901A70196010E94480D605DF80162938B
:100AD0008F01211531054105510589F790E080E02E
:100AE000309769F2BF01C5010E94E304C8CF85EDCC
:100AF0008093BC008091A9019091AA01A091AB01C3
:100B0000B091AC010796A11DB11D23E0B695A79544
:100B1000979587952A95D1F72091BC0024FD03C0B5
:100B20001092F20108954091A9015091AA0160919B
:100B3000AB017091AC01452B462B472B69F3009715
:100B4000A105B10541F02AE22A95F1F700C001970D
:100B5000A109B109E1CF8091A8010C94E8020C949D
:100B60003A0D6091400281E090E00E94AF056091F3
:100B70003C0282E090E00E94AF056091380283E081
:100B800090E00E94AF056091340284E090E00E9402
:100B9000AF056091300285E090E00E94AF05609162
:100BA0002C0286E090E00E94AF056091280287E069
:100BB00090E00E94AF056091240288E090E00C94E0
:100BC000AF050C94320D1F920F920FB60F921124A5
:100BD0002F933F938F939F93AF93BF93809147023F
:100BE00090914802A0914902B0914A023091460288
:100BF00023E0230F2D3758F50196A11DB11D209339
:100C000046028093470290934802A0934902B09312
:100C10004A0280914B0290914C02A0914D02B091FA
:100C20004E020196A11DB11D80934B0290934C0280
:100C3000A0934D02B0934E02BF91AF919F918F91BF
:100C40003F912F910F900FBE0F901F90189526E89F
:100C5000230F0296A11DB11DD2CF1F920F920FB686
:100C60000F9211242F933F934F935F936F937F9332
:100C70008F939F93AF93BF93EF93FF938FE492E093
:100C80000E941402FF91EF91BF91AF919F918F91BC
:100C90007F916F915F914F913F912F910F900FBE78
:100CA0000F901F9018951F920F920FB60F9211245C
:100CB0002F938F939F93EF93FF93E0915F02F091B7
:100CC00060028081E0916502F091660282FD1BC0A6
:100CD0009081809168028F5F8F73209169028217E3
:100CE00041F0E0916802F0E0E15BFD4F958F809369
:100CF0006802FF91EF919F918F912F910F900FBEFE
:100D00000F901F9018958081F4CF1F920F920FB60D
:100D10000F9211242F933F934F935F936F937F9381
:100D20008F939F93AF93BF93EF93FF938091B900FD
:100D3000887F803609F44AC0F0F5883209F4A7C0EC
:100D400018F5803109F49BC0B8F4882309F4F9C080
:100D5000883009F494C0FF91EF91BF91AF919F91BA
:100D60008F917F916F915F914F913F912F910F9054
:100D70000FBE0F901F901895883109F488C08032FB
:100D800051F78093F10114C0803409F49DC040F400
:100D90008033B9F38833F9F68093F10185ECB0C064
:100DA000803509F485C0883509F496C0883499F6F1
:100DB0000E947705D0CF883909F48CC038F5883780
:100DC00029F050F4883611F0803729F683E08093BB
:100DD000F2011092F00157C0883809F47BC08039C5
:100DE00019F0803809F0B7CF8091F001803208F017
:100DF00071C0E091F00181E08E0F8093F00180914D
:100E0000BB00F0E0E053FE4F80833DC0803B39F0F3
:100E1000E0F4803A09F479C0883A09F09CCF84E084
:100E20008093F2011092CF011092CE01E0911A024C
:100E3000F0911B0209958091CE0181110FC081E0D4
:100E40008093CE011092AE0109C0803C09F4A6CF78
:100E5000883C09F4A3CF883B09F07DCFE091CF0116
:100E600081E08E0F8093CF01F0E0E255FE4F80814C
:100E70008093BB009091CF018091CE0129C08091D9
:100E800017028093BB0085EC8093BC0064CF9091E7
:100E9000160280911502981758F5E091160281E02C
:100EA0008E0F80931602F0E0EB50FE4F8081E9CF69
:100EB000E091160281E08E0F809316028091BB00B4
:100EC000F0E0EB50FE4F8083909116028091150266
:100ED0009817C8F285E8D8CFE091160281E08E0F0E
:100EE000809316028091BB00F0E0EB50FE4F8083B0
:100EF0008091F40181115CCF81E08093F30184EA59
:100F00008093BC001092F20126CF85EC8093BC0048
:100F10001092F2018091F001803230F4E091F00102
:100F2000F0E0E053FE4F10826091F00170E0E0913C
:100F30001802F091190280ED91E009951092F001EC
:100F40000ACF1092F10134CFEFE4F2E01382128263
:100F500088EE93E0A0E0B0E084839583A683B78316
:100F60002CE031E03183208325EC30E03587248785
:100F700024EC30E03787268720EC30E0318B208B63
:100F800021EC30E0338B228B22EC30E0358B248B4C
:100F900026EC30E0378B268B118E128E138E148E3A
:100FA000ECEEF2E01382128284839583A683B783EA
:100FB0008EE191E091838083E8EFF2E01382128268
:100FC00080E391E09183808380E2848380E1818764
:100FD00082E0828713860895789484B5826084BD08
:100FE00084B5816084BD85B5826085BD85B581602D
:100FF00085BD80916E00816080936E0010928100AB
:101000008091810082608093810080918100816065
:101010008093810080918000816080938000809126
:10102000B10084608093B1008091B00081608093B2
:10103000B00080917A00846080937A0080917A0079
:10104000826080937A0080917A00816080937A0038
:1010500080917A00806880937A001092C10010928B
:101060001F0210921E0210921D0210921C020E947A
:10107000CA0284E991E090931B0280931A0285E9E9
:1010800091E090931902809318021092FD028091D2
:101090000203823018F098E09093FD0280930003E1
:1010A00062E370E080E090E00E94620160910303DF
:1010B00088EF92E00E948F0368EE73E080E090E09A
:1010C0000E94620160E388EF92E00E947A04CBE420
:1010D000D6E4CE010197F1F760E388EF92E00E9439
:1010E0007A042197F1F760E388EF92E00E947A0496
:1010F00083E592E00197F1F760E288EF92E00E94C9
:101100007A046091FD02606240E088EF92E00E9404
:10111000930484E08093FE0240E06CE088EF92E06C
:101120000E94930440E061E088EF92E00E94930403
:10113000CBE3DFE1CE010197F1F712E01093FF025C
:1011400040E066E088EF92E00E94930440E062E0B5
:1011500088EF92E00E949304CE010197F1F788E0B6
:101160008093030360E088EF92E00E948F0360E0C9
:1011700080E00E94AA0468E371E088EF92E00E9498
:10118000E30460ED77E080E090E00E94620140E0DF
:1011900061E088EF92E00E9493042197F1F762E00A
:1011A00087E00E940C0162E086E00E940C0162E090
:1011B00085E00E940C0161E088E00E940C01E09152
:1011C0005F02F09160021083E0915B02F0915C029B
:1011D0001082E0915D02F0915E028FEC80831092AC
:1011E0006702E0916302F091640286E08083E091FF
:1011F0006102F0916202808180618083E0916102EE
:10120000F0916202808188608083E0916102F091B8
:101210006202808180688083E0916102F0916202C5
:1012200080818F7D808367E471E08FE492E00E948B
:10123000E3046CE471E08FE492E00E94E30482E353
:1012400090E00E94E10581110E94B10560E082E317
:1012500090E00E94AF0581E090E00E94E10590E0FF
:10126000B0E0A0E08093400290934102A09342023C
:10127000B093430282E090E00E94E10590E0B0E08C
:10128000A0E080933C0290933D02A0933E02B09375
:101290003F0283E090E00E94E10590E0B0E0A0E032
:1012A0008093380290933902A0933A02B0933B02A4
:1012B00084E090E00E94E10590E0B0E0A0E080933F
:1012C000340290933502A0933602B093370285E042
:1012D00090E00E94E10590E0B0E0A0E08093300251
:1012E00090933102A0933202B093330286E090E0F3
:1012F0000E94E10590E0B0E0A0E080932C02909382
:101300002D02A0932E02B0932F0287E090E00E945E
:10131000E10590E0B0E0A0E08093280290932902DC
:10132000A0932A02B0932B0288E090E00E94E1058E
:1013300090E0B0E0A0E08093240290932502A09377
:101340002602B093270200E010E0C1E0D0E089E07F
:10135000C82ED12CE12CF12C87E00E94B500892BFE
:1013600009F06DC38091440290914502892B09F0E8
:1013700036C1D0934502C0934402809140029091BF
:101380004102A0914202B09143020196A11DB11DFC
:101390008093400290934102A0934202B093430293
:1013A0000A97A105B105DCF080913C0290913D02C5
:1013B000A0913E02B0913F02109240021092410271
:1013C00010924202109243020196A11DB11D80931A
:1013D0003C0290933D02A0933E02B0933F02809165
:1013E0003C0290913D02A0913E02B0913F020A97CB
:1013F000A105B105DCF08091380290913902A091ED
:101400003A02B0913B0210923C0210923D021092BF
:101410003E0210923F020196A11DB11D8093380239
:1014200090933902A0933A02B0933B028091380224
:1014300090913902A0913A02B0913B020A97A1051E
:10144000B105DCF08091340290913502A091360212
:10145000B0913702109238021092390210923A027B
:1014600010923B020196A11DB11D8093340290930E
:101470003502A0933602B0933702809134029091E6
:101480003502A0913602B09137020A97A105B10545
:10149000DCF08091300290913102A0913202B09143
:1014A00033021092340210923502109236021092DA
:1014B00037020196A11DB11D809330029093310235
:1014C000A0933202B09333028091300290913102A6
:1014D000A0913202B09133020A97A105B105DCF068
:1014E00080912C0290912D02A0912E02B0912F029A
:1014F0001092300210923102109232021092330296
:101500000196A11DB11D80932C0290932D02A093F2
:101510002E02B0932F0280912C0290912D02A09167
:101520002E02B0912F020A97A105B105DCF080913F
:10153000280290912902A0912A02B0912B021092C8
:101540002C0210922D0210922E0210922F02019660
:10155000A11DB11D8093280290932902A0932A0215
:10156000B0932B028091280290912902A0912A0227
:10157000B0912B020A97A105B105DCF080912402FD
:1015800090912502A0912602B09127021092280284
:101590001092290210922A0210922B020196A11D8C
:1015A000B11D8093240290932502A0932602B0934C
:1015B00027028091240290912502A0912602B091E9
:1015C00027020A97A105B10544F010922402109257
:1015D000250210922602109227020E94B10586E091
:1015E0000E94B500892B09F02FC2809122029091B0
:1015F0002302892B09F026C1D0932302C093220233
:101600008091400290914102A0914202B091430228
:101610000197A109B1098093400290934102A093E0
:101620004202B0934302B7FF1BC080913C029091ED
:101630003D02A0913E02B0913F02C0924002D09282
:101640004102E0924202F09243020197A109B109DE
:1016500080933C0290933D02A0933E02B0933F02E0
:1016600080913C0290913D02A0913E02B0913F02D8
:10167000B7FF1BC08091380290913902A0913A02C5
:10168000B0913B02C0923C02D0923D02E0923E02F9
:10169000F0923F020197A109B1098093380290931B
:1016A0003902A0933A02B0933B02809138029091A4
:1016B0003902A0913A02B0913B02B7FF1BC0809162
:1016C000340290913502A0913602B0913702C09257
:1016D0003802D0923902E0923A02F0923B0201972E
:1016E000A109B1098093340290933502A093360288
:1016F000B09337028091340290913502A091360266
:10170000B0913702B7FF1BC0809130029091310237
:10171000A0913202B0913302C0923402D0923502CD
:10172000E0923602F09237020197A109B109809345
:10173000300290933102A0933202B0933302809131
:10174000300290913102A0913202B0913302B7FF82
:101750001BC080912C0290912D02A0912E02B0917D
:101760002F02C0923002D0923102E0923202F09207
:1017700033020197A109B10980932C0290932D02A5
:10178000A0932E02B0932F0280912C0290912D02F3
:10179000A0912E02B0912F02B7FF1BC080912802AA
:1017A00090912902A0912A02B0912B02C0922C02A2
:1017B000D0922D02E0922E02F0922F020197A10901
:1017C000B1098093280290932902A0932A02B09332
:1017D0002B028091280290912902A0912A02B091B7
:1017E0002B02B7FF1BC08091240290912502A0918B
:1017F0002602B0912702C0922802D0922902E092DC
:101800002A02F0922B020197A109B10980932402C8
:1018100090932502A0932602B09327028091240280
:1018200090912502A0912602B0912702B7FF08C02F
:10183000C0922402D0922502E0922602F092270262
:101840000E94B10585E00E94B500892B09F001C115
:101850004091200250912102483C5105C4F44F5F51
:101860005F4F5093210240932002052E000C660B1F
:10187000770B8FE492E00E94F2046CE471E08FE455
:1018800092E00E94E30461E088E00E94DE00809123
:10189000200290912102883C910509F056C01092D7
:1018A0002102109220026FE471E08FE492E00E9426
:1018B000E3046CE471E08FE492E00E94E30460E0F2
:1018C00088E00E94DE0010924002109241021092C5
:1018D00042021092430210923C0210923D0210927A
:1018E0003E0210923F02109238021092390210927A
:1018F0003A0210923B02109234021092350210927A
:101900003602109237021092300210923102109279
:1019100032021092330210922C0210922D02109279
:101920002E0210922F021092280210922902109279
:101930002A0210922B021092240210922502109279
:101940002602109227020E94B10560E080E00E940A
:10195000AA0465E571E088EF92E00E94E30461E08B
:1019600084E00E94AA0440912402509125026091D3
:1019700026027091270288EF92E00E94F2044091C3
:1019800028025091290260912A0270912B0288EF5F
:1019900092E00E94F20440912C0250912D0260913D
:1019A0002E0270912F0288EF92E00E94F204409183
:1019B000300250913102609132027091330288EF0F
:1019C00092E00E94F20440913402509135026091FD
:1019D00036027091370288EF92E00E94F204409143
:1019E00038025091390260913A0270913B0288EFBF
:1019F00092E00E94F20440913C0250913D026091BD
:101A00003E0270913F0288EF92E00E94F204409102
:101A1000400250914102609142027091430288EF6E
:101A200092E00E94F2040115110509F495CC0E9480
:101A30000002882309F490CC0E9400008DCC109203
:101A4000450210924402CBCD109223021092220242
:101A5000F9CE60E088E00E94DE0010922102109230
:101A6000200273CFF999FECF92BD81BDF89A9927D4
:101A700080B50895262FF999FECF1FBA92BD81BD7A
:101A800020BD0FB6F894FA9AF99A0FBE0196089500
:101A9000A1E21A2EAA1BBB1BFD010DC0AA1FBB1F72
:101AA000EE1FFF1FA217B307E407F50720F0A21BE4
:101AB000B30BE40BF50B661F771F881F991F1A9451
:101AC00069F760957095809590959B01AC01BD017B
:101AD000CF010895EE0FFF1F0590F491E02D0994BA
:041AE000F894FFCFA8
:101AE400000040001400540000000000360296017B
:101AF400C3018302F401D201E60100000000600387
:101B04003303770409032C0319030A0300000000BC
:101B1400DD049601770476042020202077656C6329
:101B24006F6D652020200068696969000D0A0072E4
:101B340065736574004469676974616C2020436F40
:061B4400756E746572006D
:00000001FF
